:100000000C9485000C94A2000C94A2000C94A20005
:100010000C94A2000C94A2000C94A2000C94A200D8
:100020000C94A2000C94A2000C94A2000C94A200C8
:100030000C94A2000C94A2000C94A2000C94A200B8
:100040000C94A2000C94A2000C94A2000C94A200A8
:100050000C94A2007C04FF04FF04FF04FF045B0473
:10006000FF04FF04FF04FF04FF04FF04FF048704F0
:100070007104FF0492049D04A804B304BE04C904DF
:10008000D404DF04EA04F504FF04FF04FF0466045B
:10009000FF04FF04FF04A003FF04ED030304C103F6
:1000A000AB03FF0424045004FF041904FF043A04C2
:1000B000E203FF04FF04CC03B60345040E04D70398
:1000C000FF04FF04FF04F8032F04FF04FF04FF04F0
:1000D000FF04FF04FF04A003FF04ED030304C103B6
:1000E000AB03FF0424045004FF041904FF043A0482
:1000F000E203FF04FF04CC03B60345040E04D70358
:10010000FF04FF04FF04F8032F0411241FBECFE5F2
:10011000D8E0DEBFCDBF10E0A0E6B0E0EAECF6E14B
:1001200002C005900D92AA3AB107D9F710E0AAEAE9
:10013000B0E001C01D92AD3AB107E1F70E943C0268
:100140000C94630B0C9400000E94C2020E940F06E4
:100150008DE990E00E94090886EA90E00E94270756
:1001600008958F929F92AF92BF92CF92DF92EF92BB
:10017000FF920F931F93CF93DF93CDB7DEB72897EE
:100180000FB6F894DEBF0FBECDBF8C0180E090E0CB
:10019000DC0189839A83AB83BC838D839E83AF8389
:1001A000B88780E068E070E0AE014F5F5F4F0E946B
:1001B0006107CD80DE80EF80F884F801C186D286A9
:1001C000E386F48689809A80AB80BC8081829282AB
:1001D000A382B48260E070E080E89FE3A70196010B
:1001E0000E948209DC01CB01F80185879687A787E9
:1001F000B08BC501B40120E030E048EC52E40E942D
:10020000A40AA70196010E9482090E94EA09F80146
:10021000608328960FB6F894DEBF0FBECDBFDF9186
:10022000CF911F910F91FF90EF90DF90CF90BF90F3
:10023000AF909F908F900895AF92BF92CF92DF9230
:10024000EF92FF920F931F93CF93DF93CDB7DEB75B
:10025000EC970FB6F894DEBF0FBECDBF5C016A010C
:100260007B010E940F0680E00E94FB05FE01319693
:10027000A0E6B0E087E00D9001928150E1F7FE0129
:10028000389688E0DF011D928A95E9F7CE01019644
:100290000E941D05F50165857685878590890E94F8
:1002A0009805FE017096AFE6B0E085E00D900192F2
:1002B0008150E1F7CE0140960E941D0582E00E9428
:1002C000FB05FE017596A5E7B0E087E00D90019271
:1002D0008150E1F7FE017C9688E0DF011D928A954E
:1002E000E9F7CE0145960E941D05F501608170E099
:1002F00080E090E00E942C05809184009091850020
:10030000A0918600B09187008CA39DA3AEA3BFA34C
:1003100018A6CE0184960E941D0584E00E94FB056C
:10032000FE01B996A9E8B0E087E00D9001928150F6
:10033000E1F7FE01F09688E0DF011D928A95E9F76A
:10034000CE0189960E941D05F50161857285838520
:1003500094850E9498058091980090919900A091B1
:100360009A00B0919B0088AF99AFAAAFBBAF1CAE0B
:10037000CE01C8960E941D0586E00E94FB0500E0A4
:1003800020E430E44EE752E062E070E080E090E08C
:100390000E9434030B5FD50111966D917D918D9173
:1003A0009C911497A70196010E9482090E94EA0974
:1003B0006623D1F010E022E032E042E052E062E059
:1003C00070E080E090E00E9434030B5F1F5FF50156
:1003D0006181728183819481A70196010E948209C3
:1003E0000E94EA09161738F322E032E04EE750E4A3
:1003F00060E470E080E090E00E9434030B5FD50180
:1004000015966D917D918D919C911897A7019601FC
:100410000E9482090E94EA096623D1F010E020E4DC
:1004200030E440E450E460E470E080E090E00E945A
:1004300034030B5F1F5FF5016581768187819085AD
:10044000A70196010E9482090E94EA09161738F353
:10045000083708F495CFEC960FB6F894DEBF0FBEC0
:10046000CDBFDF91CF911F910F91FF90EF90DF9063
:10047000CF90BF90AF900895CF93DF93CDB7DEB705
:1004800061970FB6F894DEBF0FBECDBF0E94A400E7
:10049000FE01319681E1DF011D928A95E9F7CE01D7
:1004A00001960E94B1006A857B858C859D8520E040
:1004B00030E040EA50E40E948209AB01BC01CE0169
:1004C00001960E941C018FEF93ECA9E081509040AF
:1004D000A040E1F700C00000E2CF813091F0813010
:1004E00028F08230C9F0833061F521C081E064E0FA
:1004F00040E00E94B60681E065E040E00E94B6065A
:10050000089581E064E041E00E94B60681E065E084
:1005100040E00E94B606089581E064E040E00E9459
:10052000B60681E065E041E00E94B606089581E0EC
:1005300064E041E00E94B60681E065E041E00E948F
:10054000B6060895CF93C82F81E062E040E00E9494
:10055000B60681E061E040E00E94B60680E06C2FC4
:100560000E94180781E060E041E00E94B6068AE13F
:100570008A95F1F700C081E060E040E00E94B60695
:10058000CF91089581E060E041E00E948C0681E017
:1005900062E041E00E948C0681E061E041E00E945F
:1005A0008C0681E066E041E00E948C0681E064E018
:1005B00041E00E948C0681E065E041E00E948C06EB
:1005C00080E061E00E94060781E066E041E00E9471
:1005D000B60683E00E946D028EE30E94A20288EBC1
:1005E0000E94A2021092AC0080E40E94A20210922B
:1005F000AB0080EC0E94A2028FE30E94A20281E085
:100600000E946D021092AA000895CF93C82F81E036
:1006100062E041E00E94B60681E061E040E00E94B5
:10062000B60680E06C2F0E94180781E060E041E090
:100630000E94B6068AE18A95F1F700C081E060E089
:1006400040E00E94B606CF91089581E066E040E068
:100650000E94B60685E38A95F1F7000081E066E026
:1006600041E00E94B60608959F92AF92BF92CF924A
:10067000DF92EF92FF920F931F93CF93DF93122F8E
:10068000F32EE42ED52EC62EB72EA82E992EC0E01E
:10069000D0E08091AC0088540E94A2028091AB000F
:1006A000805C0E94A202212F3F2D4E2D5D2D6C2DCE
:1006B0007B2D8A2D992D0C2F0E94A308822F0E943A
:1006C00005038091AB008F5F8093AB00803448F0CE
:1006D0008091AA00882329F482E00E946D02109282
:1006E000AB002896C832D105A1F6DF91CF911F91BA
:1006F0000F91FF90EF90DF90CF90BF90AF909F90C1
:10070000089591E02091AA00211190E0992349F4E5
:1007100091E02091AB00293308F090E0992309F48F
:100720008BC190E080978B35910508F068C1865D9C
:100730009F4FFC01EE0FFF1F0590F491E02D0994EF
:100740002CE732E141E152E16CE770E080E090E0BB
:100750000E94340354C12FE739E049E059E061E0D9
:1007600070E080E090E00E94340349C12FE739E057
:1007700049E159E26FE470E080E090E00E943403C8
:100780003EC12FE739E449E459E461E470E080E0D8
:1007900090E00E94340333C12EE131E241E35EE395
:1007A00060E470E080E090E00E94340328C12FE311
:1007B00030E440E450E46FE370E080E090E00E94B9
:1007C00034031DC12FE732E04CE150E26FE770E0E7
:1007D00080E090E00E94340312C12EE331E441E452
:1007E00051E461E470E080E090E00E94340307C1CE
:1007F00023E03CE040E75CE063E070E080E090E014
:100800000E943403FCC02FE731E441E45EE360E082
:1008100070E080E090E00E943403F1C021E031E01C
:100820004FE751E061E070E080E090E00E94340327
:10083000E6C02FE738E044E152E261E470E080E096
:1008400090E00E943403DBC02FE738E048E058E036
:100850006FE770E080E090E00E943403D0C021E6B2
:1008600031E549E455E463E470E080E090E00E9403
:100870003403C5C02FE732E04CE052E06FE770E090
:1008800080E090E00E943403BAC02FE439E449E4E8
:1008900059E469EF70E080E090E00E943403AFC05B
:1008A00021E431E44FE751E461E470E080E090E05E
:1008B0000E943403A4C023EC33E748E15EEC63EC10
:1008C00070E080E090E00E94340399C024E234E2BA
:1008D00044E254E264E270E080E090E00E9434037D
:1008E0008EC020E030E740E750E760E070E080E055
:1008F00090E00E94340383C020E030E040E050E00C
:1009000060E070E080E090E00E94340378C028E16D
:1009100038E148E158E168E170E080E090E00E9451
:1009200034036DC02EE331E549E455E46EE370E035
:1009300080E090E00E94340362C024E432E44FE798
:1009400050E460E470E080E090E00E94340357C01F
:1009500026E431E641E55EE460E470E080E090E0AA
:100960000E9434034CC021E439E449E459E466E3CD
:1009700070E080E090E00E94340341C028E134E15F
:1009800042E15FE760E170E080E090E00E943403C4
:1009900036C02FE439E449E451E561E270E080E0DB
:1009A00090E00E9434032BC02CE73AE449E459E478
:1009B00061E370E080E090E00E94340320C021E019
:1009C00039E449E259E16FE070E080E090E00E9494
:1009D000340315C027E739E449E459E467E770E0D8
:1009E00080E090E00E9434030AC02FE439E449E437
:1009F00059E46FE770E080E090E00E94340380915A
:100A0000AC0088540E94A2028091AB00805C0E94DE
:100A1000A20280E00E9405038091AB008F5F80936B
:100A2000AB00803448F08091AA00882329F482E04A
:100A30000E946D021092AA000895CF93DF93EC01FB
:100A40008881882331F021960E948103899188232F
:100A5000D9F7DF91CF9108954F925F926F927F9275
:100A6000AF92BF92CF92DF92EF92FF920F931F93BC
:100A7000CF93DF9300D000D00F92CDB7DEB76B01DC
:100A80007C0199235CF48DE20E948103F094E09450
:100A9000D094C094C11CD11CE11CF11C19821A8293
:100AA0001B821C821D828E010F5F1F4F0F2EFAE0EA
:100AB0004F2EF0E05F2EF0E06F2EF0E07F2EF02D55
:100AC000C701B601A30192010E94260B605DF801E7
:100AD00061938F01C22ED32EE42EF52E5F011C14DC
:100AE0001D041E041F0464F3CE2EDB2C8E010F5F49
:100AF0001F4F0894A108B108F60182916F010E946E
:100B000081030A151B05A9F70F900F900F900F9006
:100B10000F90DF91CF911F910F91FF90EF90DF9099
:100B2000CF90BF90AF907F906F905F904F9008955F
:100B30008F929F92AF92BF92CF92DF92EF92FF92ED
:100B40000F931F93CF93DF934B015C010E94EA093F
:100B50006B01EE24FF24C701B6010E942C058EE232
:100B60000E948103C701B6010E94160A9B01AC01D5
:100B7000C501B4010E941D09C3E0382F292F862F1B
:100B8000972FA32FB22FBC01CD0120E030E040E22F
:100B900051E40E94A40AC62ED72F182F092F862FA2
:100BA0009D2FA12FB02FBC01CD010E94EA09862EF6
:100BB000862F805D0E948103682D70E080E090E0C8
:100BC0000E94180A9B01AC018C2D9D2FA12FB02FE4
:100BD000BC01CD010E941D09C15079F6DF91CF9172
:100BE0001F910F91FF90EF90DF90CF90BF90AF904B
:100BF0009F908F900895CF93C82F883070F481E034
:100C00000E946D02C093AC008C2F88540E94A202F7
:100C10001092AB0080E40E94A202CF910895CF937E
:100C2000DF93D0E08D2F0E94FB0583E00E946D02D0
:100C3000C0E48C2F0E94A20280E00E940503CF5FD7
:100C4000C038B9F7DF5FD83069F70E94250381E02B
:100C50000E946D021092AA0080E00E94FB05DF91C5
:100C6000CF9108958130C9F0813030F0823029F180
:100C7000833009F042C031C0613009F441C06130B5
:100C800018F0623021F406C08AE390E0089580E015
:100C900090E0089589E390E008956130A1F161301A
:100CA00018F0623021F406C087E390E0089580E0F8
:100CB00090E0089586E390E00895613039F1613065
:100CC00018F0623021F406C084E390E0089580E0DB
:100CD00090E0089583E390E008956130D1F06130B1
:100CE00018F0623021F406C081E390E0089580E0BE
:100CF00090E0089580E390E0089580E090E008950A
:100D00008BE390E0089588E390E0089585E390E018
:100D1000089582E390E00895CF93DF93C62FD42FF8
:100D200060E00E943206FC01DD2319F0D130D9F4D5
:100D30000EC0208181E090E0AC0102C0440F551F3D
:100D4000CA95E2F7EA01C095C223C0830CC0208196
:100D500081E090E0AC0102C0440F551FCA95E2F754
:100D6000EA01C22BC083DF91CF910895CF93DF9327
:100D7000C62FD42F61E00E943206FC01DD2319F05A
:100D8000D130D9F40EC0208181E090E0AC0102C0E6
:100D9000440F551FCA95E2F7EA01C095C223C083EC
:100DA0000CC0208181E090E0AC0102C0440F551FCF
:100DB000CA95E2F7EA01C22BC083DF91CF91089573
:100DC000CF93DF93C62F61E00E943206FC012081A1
:100DD00081E090E0AC0102C0440F551FCA95E2F7D4
:100DE000EA01C227C083DF91CF910895CF93C62F28
:100DF00062E00E943206FC01808190E002C095957D
:100E00008795CA95E2F78170CF910895CF93C62F49
:100E100060E00E943206CC2319F0C13039F403C0DF
:100E2000FC01108203C02FEFFC012083CF910895B5
:100E3000CF93C62F61E00E943206FC01C083CF91A0
:100E4000089562E00E943206FC0180810895FC0151
:100E50008E981FBC1EBC9EB58181892B8EBD9EB510
:100E600082818295880F880F807C892B8EBD99B7EF
:100E700083818295880F807E892B89BF1DBC1CBC15
:100E800017BC16BC08958EB58F7B8EBD8EB562954E
:100E9000660F660F607C682B6EBD08951DBC1CBC80
:100EA000089586B597B5089588B782958695877019
:100EB00080FF05C088B7806288BF81E0089580E028
:100EC00008958F929F92AF92BF92CF92DF92EF924E
:100ED000FF920F931F93CF93DF934B01EA0188B7E3
:100EE000806288BF80E061E00E94430780E00E944A
:100EF00054078823D9F380E060E00E94430780E034
:100F00000E944E0788B7806288BFCC24DD2476011A
:100F10000EC088B782FF0BC088B7846088BF80E0AE
:100F200090E0A1E0B0E0C80ED91EEA1EFB1E80E0F2
:100F30000E945407882369F380E00E945107A0E0D3
:100F4000B0E0C80ED91EEA1EFB1E80E061E00E94E0
:100F5000430780E00E944E0788B7806288BF06C0C2
:100F600088B782FF03C088B7846088BF80E00E9492
:100F700054078823A9F380E00E9451078C01AA241A
:100F8000BB24C701B601A50194010E94070B0E9472
:100F9000160A20E030E04AE754E40E94A40A20E068
:100FA00034E244E75BE40E948209DC01CB018883E0
:100FB0009983AA83BB83C801A0E0B0E0C80ED91E04
:100FC000EA1EFB1EC701B601A50194010E94070B92
:100FD0000E94160A20E030E04AE754E40E94A40A86
:100FE00020E034E244E75BE40E948209DC01CB01AB
:100FF0008C839D83AE83BF83DF91CF911F910F912F
:10100000FF90EF90DF90CF90BF90AF909F908F9028
:101010000895FC01BB9A13BE93B790648181880F39
:10102000880F880F892B83BF93B790628381829545
:10103000807F892B83BF8281843071F0853018F4E2
:10104000833090F405C0982F9650943068F408C00F
:1010500093B7892B83BF08C083B7836083BF04C065
:1010600093B78250892B83BF1CBE8381882319F0DC
:10107000813091F514C0808590E0782F6627681B39
:10108000790B80E090E00E94160A20E030E048EC06
:1010900052E40E9482090E94EA096CBF1DC060856B
:1010A00070E080E090E00E94180A9B01AC0160E0D3
:1010B00070E088EC92E40E941D0920E030E04FE7E8
:1010C00053E40E94A40A20E030E048EC52E40E947D
:1010D00082090E94EA096CBF12BE0895882319F0A4
:1010E000813081F514C0962F88279C01261B370B71
:1010F000B90180E090E00E94160A20E030E048EC60
:1011000052E40E9482090E94EA096CBF089580E0BF
:1011100090E00E94160A9B01AC0160E070E088EC50
:1011200092E40E941D0920E030E04FE753E40E9462
:10113000A40A20E030E048EC52E40E9482090E94B8
:10114000EA096CBF0895CF92DF92EF92FF920F935E
:10115000CF93DF93CDB7DEB760970FB6F894DEBFBD
:101160000FBECDBF002309F45AC029873A874B87A9
:101170005C876D877E878F87988B80E2801B4D858B
:101180005E856F8578891816B4F01D821E821F82D5
:101190001886992787FD9095909581959F4F04C05B
:1011A00076956795579547958A95D2F749835A83DF
:1011B0006B837C832CC06A017B01002E04C0F694F3
:1011C000E794D794C7940A94D2F7CD82DE82EF8257
:1011D000F8866A017B0104C0CC0CDD1CEE1CFF1CF0
:1011E0008A95D2F7D701C60149855A856B857C85DA
:1011F00004C076956795579547950A95D2F7842B45
:10120000952BA62BB72B89839A83AB83BC8329812B
:101210003A814B815C816D817E818F81988560965A
:101220000FB6F894DEBF0FBECDBFDF91CF910F9107
:10123000FF90EF90DF90CF9008955058BB27AA27DA
:101240000ED048C139D130F03ED120F031F49F3F6B
:1012500011F41EF42EC10EF4E095E7FB24C1E92F32
:101260004AD180F3BA17620773078407950718F00D
:1012700071F49EF562C10EF4E0950B2EBA2FA02DED
:101280000B01B90190010C01CA01A0011124FF2733
:10129000591B99F0593F50F4503E68F11A16F0402E
:1012A000A22F232F342F4427585FF3CF469537952D
:1012B0002795A795F0405395C9F77EF41F16BA0BF2
:1012C000620B730B840BBAF09150A1F0FF0FBB1FA0
:1012D000661F771F881FC2F70EC0BA0F621F731FE9
:1012E000841F48F4879577956795B795F7959E3F46
:1012F00008F0B3CF9395880F08F09927EE0F9795D4
:10130000879508950CD0E6C0DED040F0D5D030F0FF
:1013100021F45F3F19F0C7C0511110C1CAC0EBD012
:1013200098F39923C9F35523B1F3951B550BBB27AC
:10133000AA2762177307840738F09F5F5F4F220F59
:10134000331F441FAA1FA9F333D00E2E3AF0E0E852
:1013500030D091505040E695001CCAF729D0FE2F9E
:1013600027D0660F771F881FBB1F26173707480730
:10137000AB07B0E809F0BB0B802DBF01FF279358E6
:101380005F4F2AF09E3F510568F08DC0D7C05F3F88
:10139000ECF3983EDCF3869577956795B795F795CE
:1013A0009F5FC9F7880F911D9695879597F90895C6
:1013B000E1E0660F771F881FBB1F62177307840762
:1013C000BA0720F0621B730B840BBA0BEE1F88F771
:1013D000E095089598D088F09F5790F0B92F9927FD
:1013E000B751A0F0D1F0660F771F881F991F1AF030
:1013F000BA95C9F712C0B13081F09FD0B1E008951D
:101400009CC0672F782F8827B85F39F0B93FCCF39D
:10141000869577956795B395D9F73EF49095809525
:10142000709561957F4F8F4F9F4F0895E89409C045
:1014300097FB3EF490958095709561957F4F8F4F07
:101440009F4F9923A9F0F92F96E9BB279395F6951D
:10145000879577956795B795F111F8CFFAF4BB0F9B
:1014600011F460FF1BC06F5F7F4F8F4F9F4F16C0FF
:10147000882311F096E911C0772321F09EE8872F89
:10148000762F05C0662371F096E8862F70E060E045
:101490002AF09A95660F771F881FDAF7880F9695BE
:1014A000879597F9089597F99F6780E870E060E065
:1014B00008959FEF80EC089500240A9416161706ED
:1014C00018060906089500240A9412161306140635
:1014D00005060895092E0394000C11F4882352F098
:1014E000BB0F40F4BF2B11F460FF04C06F5F7F4F50
:1014F0008F4F9F4F089557FD9058440F551F59F037
:101500005F3F71F04795880F97FB991F61F09F3FF0
:1015100079F087950895121613061406551FF2CF19
:101520004695F1DF08C0161617061806991FF1CF69
:1015300086957105610508940895E894BB27662790
:101540007727CB0197F908950BD0C4CFB5DF28F0EA
:10155000BADF18F0952309F0A6CFABCF1124EECF58
:10156000CADFA0F3959FD1F3950F50E0551F629FFE
:10157000F001729FBB27F00DB11D639FAA27F00DEC
:10158000B11DAA1F649F6627B00DA11D661F829F13
:101590002227B00DA11D621F739FB00DA11D621FF8
:1015A000839FA00D611D221F749F3327A00D611D15
:1015B000231F849F600D211D822F762F6A2F1124F7
:1015C0009F5750408AF0E1F088234AF0EE0FFF1F4A
:1015D000BB1F661F771F881F91505040A9F79E3F81
:1015E000510570F060CFAACF5F3FECF3983EDCF37B
:1015F000869577956795B795F795E7959F5FC1F7BE
:10160000FE2B880F911D9695879597F90895629FF7
:10161000D001739FF001829FE00DF11D649FE00DEA
:10162000F11D929FF00D839FF00D749FF00D659F4B
:10163000F00D9927729FB00DE11DF91F639FB00D4A
:10164000E11DF91FBD01CF011124089597FB092E5B
:1016500005260ED057FD04D014D00AD0001C38F453
:1016600050954095309521953F4F4F4F5F4F0895CE
:10167000F6F790958095709561957F4F8F4F9F4FAE
:101680000895A1E21A2EAA1BBB1BFD010DC0AA1FC3
:10169000BB1FEE1FFF1FA217B307E407F50720F0DB
:1016A000A21BB30BE40BF50B661F771F881F991F56
:1016B0001A9469F760957095809590959B01AC019F
:0A16C000BD01CF010895F894FFCF9B
:1016CA00467265713D000000000000000000002025
:1016DA006B487A0000447574793D000000000000F0
:1016EA0000000000202500000054696D653D0000DF
:1016FA0000000000000000006D73000000000102FD
:0A170A0001000104001E00020000AF
:00000001FF
