S00E000066696E616C312E73726563DB
S11300000C9485000C94A2000C94A2000C94A20001
S11300100C94A2000C94A2000C94A2000C94A200D4
S11300200C94A2000C94A2000C94A2000C94A200C4
S11300300C94A2000C94A2000C94A2000C94A200B4
S11300400C94A2000C94A2000C94A2000C94A200A4
S11300500C94A20019049C049C049C049C04F803C2
S11300609C049C049C049C049C049C049C04240404
S11300700E049C042F043A04450450045B046604F3
S113008071047C04870492049C049C049C0403046F
S11300909C049C049C043D039C048A03A0035E030B
S11300A048039C04C103ED039C04B6039C04D703DA
S11300B07F039C049C0469035303E203AB037403AE
S11300C09C049C049C049503CC039C049C049C0405
S11300D09C049C049C043D039C048A03A0035E03CB
S11300E048039C04C103ED039C04B6039C04D7039A
S11300F07F039C049C0469035303E203AB0374036E
S11301009C049C049C049503CC0311241FBECFE5DE
S1130110D8E0DEBFCDBF11E0A0E6B0E0ECEAF4E247
S113012002C005900D92A831B107D9F711E0A8E1FA
S1130130B1E001C01D92A332B107E1F70E94D501DD
S11301400C9454120C9400009EB59F7B9EBD882392
S113015039F48EB56295660F660F607C682B6EBDB0
S11301600895882311F41DBC1CBC0895882319F438
S113017086B597B5089580E090E00895882359F4F2
S113018088B782958695877080FF07C088B780629C
S113019088BF81E0089580E0089580E00895FC011F
S11301A08E981FBC1EBC9EB58181892B8EBD9EB5C9
S11301B082818295880F880F807C892B8EBD99B7A8
S11301C083818295880F807E892B89BF1DBC1CBCCE
S11301D017BC16BC0895FC012081222311F40E944F
S11301E0CF0008958F929F92AF92BF92CF92DF92E9
S11301F0EF92FF920F931F93CF93DF934C01EB0188
S113020088B7806288BF80E061E00E94A40080E03B
S11302100E94BE008823D9F380E060E00E94A4001D
S113022080E00E94B10088B7806288BFCC24DD24BE
S113023076010EC088B782FF0BC088B7846088BF80
S113024080E090E0A1E0B0E0C80ED91EEA1EFB1EDB
S113025080E00E94BE00882369F380E00E94B6001B
S1130260A0E0B0E0C80ED91EEA1EFB1E80E061E0EB
S11302700E94A40080E00E94B10088B7806288BF19
S113028006C088B782FF03C088B7846088BF80E057
S11302900E94BE008823A9F380E00E94B6008C016E
S11302A0AA24BB24C701B601A50194010E94CA1166
S11302B00E94D91020E030E04AE754E40E9467111C
S11302C020E034E244E75BE40E944510DC01CB010A
S11302D088839983AA83BB83C801A0E0B0E0C80ED9
S11302E0D91EEA1EFB1EC701B601A50194010E9496
S11302F0CA110E94D91020E030E04AE754E40E9479
S1130300671120E034E244E75BE40E944510DC011D
S1130310CB018C839D83AE83BF83DF91CF911F91EB
S11303200F91FF90EF90DF90CF90BF90AF909F9090
S11303308F900895882321F4CB01BA010E94F20022
S11303400895EF92FF921F93CF93DF93CDB7DEB75B
S113035029970FB6F894DEBF0FBECDBF182F7B01CF
S113036084E690E00E942612198281E08A831B832E
S11303701C8280E490E09E838D83F886EF8282E382
S11303808987CE0101960E94110A8EE790E00E94AF
S1130390261229960FB6F894DEBF0FBECDBFDF91AB
S11303A0CF911F91FF90EF900895CF93DF93CDB736
S11303B0DEB761970FB6F894DEBF0FBECDBF0E94C3
S11303C0240AFE01319681E1DF011D928A95E9F745
S11303D086E090E065E375E00E94A10180E060E0C2
S11303E048E250E00E941907CE0101960E94310AAA
S11303F0CE01019640E050E060E87EE30E94A90A45
S11304008FEF99EFA0E081509040A040E1F700C049
S11304100000E4CF813091F0813028F08230C9F0BF
S1130420833061F521C081E064E040E00E9453061E
S113043081E065E040E00E945306089581E064E0B5
S113044041E00E94530681E065E040E00E945306CB
S1130450089581E064E040E00E94530681E065E095
S113046041E00E945306089581E064E041E00E9467
S1130470530681E065E041E00E9453060895CF935E
S1130480C82F81E062E040E00E94530681E061E011
S113049040E00E94530680E06C2F0E94B50681E084
S11304A060E041E00E9453068AE18A95F1F700C0BA
S11304B081E060E040E00E945306CF91089581E01E
S11304C060E041E00E94290681E062E041E00E9490
S11304D0290681E061E041E00E94290681E066E0AE
S11304E041E00E94290681E064E041E00E9429067F
S11304F081E065E041E00E94290680E061E00E941D
S1130500A30681E066E041E00E94530683E00E9476
S11305100A028EE30E943F0288EB0E943F0210927F
S11305201A0180E40E943F021092190180EC0E949B
S11305303F028FE30E943F0281E00E940A02109270
S113054018010895CF93C82F81E062E041E00E9432
S1130550530681E061E040E00E94530680E06C2F86
S11305600E94B50681E060E041E00E9453068AE102
S11305708A95F1F700C081E060E040E00E945306F4
S1130580CF91089581E066E040E00E94530685E340
S11305908A95F1F7000081E066E041E00E9453068D
S11305A008959F92AF92BF92CF92DF92EF92FF9203
S11305B00F931F93CF93DF93122FF32EE42ED52E98
S11305C0C62EB72EA82E992EC0E0D0E080911A0135
S11305D088540E943F0280911901805C0E943F026E
S11305E0212F3F2D4E2D5D2D6C2D7B2D8A2D992D88
S11305F00C2F0E94660F822F0E94A2028091190183
S11306008F5F80931901803448F08091180188230A
S113061029F482E00E940A02109219012896C83235
S1130620D105A1F6DF91CF911F910F91FF90EF902B
S1130630DF90CF90BF90AF909F90089591E020916C
S11306401801211190E0992349F491E020911901B6
S1130650293308F090E0992309F48BC190E0809746
S11306608B35910508F068C1865D9F4FFC01EE0F44
S1130670FF1F0590F491E02D09942CE732E141E14C
S113068052E16CE770E080E090E00E94D10254C136
S11306902FE739E049E059E061E070E080E090E064
S11306A00E94D10249C12FE739E049E159E26FE4E0
S11306B070E080E090E00E94D1023EC12FE739E46F
S11306C049E459E461E470E080E090E00E94D102E2
S11306D033C12EE131E241E35EE360E470E080E0A7
S11306E090E00E94D10228C12FE330E440E450E4BA
S11306F06FE370E080E090E00E94D1021DC12FE71B
S113070032E04CE150E26FE770E080E090E00E945C
S1130710D10212C12EE331E441E451E461E470E01A
S113072080E090E00E94D10207C123E03CE040E772
S11307305CE063E070E080E090E00E94D102FCC0E5
S11307402FE731E441E45EE360E070E080E090E0B4
S11307500E94D102F1C021E031E04FE751E061E0B5
S113076070E080E090E00E94D102E6C02FE738E01C
S113077044E152E261E470E080E090E00E94D10242
S1130780DBC02FE738E048E058E06FE770E080E036
S113079090E00E94D102D0C021E631E549E455E45D
S11307A063E470E080E090E00E94D102C5C02FE7CE
S11307B032E04CE052E06FE770E080E090E00E94AD
S11307C0D102BAC02FE439E449E459E469EF70E096
S11307D080E090E00E94D102AFC021E431E44FE711
S11307E051E461E470E080E090E00E94D102A4C092
S11307F023EC33E748E15EEC63EC70E080E090E0EA
S11308000E94D10299C024E234E244E254E264E258
S113081070E080E090E00E94D1028EC020E030E7DA
S113082040E750E760E070E080E090E00E94D10291
S113083083C020E030E040E050E060E070E080E021
S113084090E00E94D10278C028E138E148E158E103
S113085068E170E080E090E00E94D1026DC02EE378
S113086031E549E455E46EE370E080E090E00E94F5
S1130870D10262C024E432E44FE750E460E470E063
S113088080E090E00E94D10257C026E431E641E5C1
S11308905EE460E470E080E090E00E94D1024CC02D
S11308A021E439E449E459E466E370E080E090E04F
S11308B00E94D10241C028E134E142E15FE760E1F6
S11308C070E080E090E00E94D10236C02FE439E469
S11308D049E451E561E270E080E090E00E94D102D9
S11308E02BC02CE73AE449E459E461E370E080E08A
S11308F090E00E94D10220C021E039E449E259E1AC
S11309006FE070E080E090E00E94D10215C027E71C
S113091039E449E459E467E770E080E090E00E943C
S1130920D1020AC02FE439E449E459E46FE770E0E6
S113093080E090E00E94D10280911A0188540E94C4
S11309403F0280911901805C0E943F0280E00E9476
S1130950A202809119018F5F80931901803448F0BD
S113096080911801882329F482E00E940A021092DF
S113097019010895CF93DF93EC018881882331F026
S113098021960E941E0389918823D9F7DF91CF9184
S113099008954F925F926F927F92AF92BF92CF92DF
S11309A0DF92EF92FF920F931F93CF93DF9300D0C8
S11309B000D00F92CDB7DEB76B017C0199235CF4B4
S11309C08DE20E941E03F094E094D094C094C11C64
S11309D0D11CE11CF11C19821A821B821C821D820B
S11309E08E010F5F1F4F0F2EFAE04F2EF0E05F2EA7
S11309F0F0E06F2EF0E07F2EF02DC701B601A301C9
S1130A0092010E94E911605DF80161938F01C22E89
S1130A10D32EE42EF52E5F011C141D041E041F04A6
S1130A2064F3CE2EDB2C8E010F5F1F4F0894A108B8
S1130A30B108F60182916F010E941E030A151B057D
S1130A40A9F70F900F900F900F900F90DF91CF9117
S1130A501F910F91FF90EF90DF90CF90BF90AF90D8
S1130A607F906F905F904F9008958F929F92AF9276
S1130A70BF92CF92DF92EF92FF920F931F93CF9387
S1130A80DF934B015C010E94AD106B01EE24FF2447
S1130A90C701B6010E94C9048EE20E941E03C70169
S1130AA0B6010E94D9109B01AC01C501B4010E949A
S1130AB0E00FC3E0382F292F862F972FA32FB22FB3
S1130AC0BC01CD0120E030E040E251E40E94671116
S1130AD0C62ED72F182F092F862F9D2FA12FB02F69
S1130AE0BC01CD010E94AD10862E862F805D0E9430
S1130AF01E03682D70E080E090E00E94DB109B01F3
S1130B00AC018C2D9D2FA12FB02FBC01CD010E94D3
S1130B10E00FC15079F6DF91CF911F910F91FF90B3
S1130B20EF90DF90CF90BF90AF909F908F900895FB
S1130B30CF93C82F883070F481E00E940A02C093DA
S1130B401A018C2F88540E943F021092190180E4EC
S1130B500E943F02CF910895CF93DF93D0E08D2F71
S1130B600E94980583E00E940A02C0E48C2F0E9430
S1130B703F0280E00E94A202CF5FC038B9F7DF5F76
S1130B80D83069F70E94C20281E00E940A021092E2
S1130B90180180E00E949805DF91CF91089581307B
S1130BA0C9F0813030F0823029F1833009F042C03D
S1130BB031C0613009F441C0613018F0623021F471
S1130BC006C08AE390E0089580E090E0089589E308
S1130BD090E008956130A1F1613018F0623021F4A1
S1130BE006C087E390E0089580E090E0089586E3EE
S1130BF090E00895613039F1613018F0623021F4E9
S1130C0006C084E390E0089580E090E0089583E3D3
S1130C1090E008956130D1F0613018F0623021F431
S1130C2006C081E390E0089580E090E0089580E3B9
S1130C3090E0089580E090E008958BE390E00895BB
S1130C4088E390E0089585E390E0089582E390E0DE
S1130C500895CF93DF93C62FD42F60E00E94CF0571
S1130C60FC01DD2319F0D130D9F40EC0208181E0DC
S1130C7090E0AC0102C0440F551FCA95E2F7EA01A7
S1130C80C095C223C0830CC0208181E090E0AC01F8
S1130C9002C0440F551FCA95E2F7EA01C22BC08374
S1130CA0DF91CF910895CF93DF93C62FD42F61E0C6
S1130CB00E94CF05FC01DD2319F0D130D9F40EC018
S1130CC0208181E090E0AC0102C0440F551FCA9519
S1130CD0E2F7EA01C095C223C0830CC0208181E001
S1130CE090E0AC0102C0440F551FCA95E2F7EA0137
S1130CF0C22BC083DF91CF910895CF93DF93C62F8A
S1130D0061E00E94CF05FC01208181E090E0AC010C
S1130D1002C0440F551FCA95E2F7EA01C227C083F7
S1130D20DF91CF910895CF93C62F62E00E94CF0543
S1130D30FC01808190E002C095958795CA95E2F701
S1130D408170CF910895CF93C62F60E00E94CF05A4
S1130D50CC2319F0C13039F403C0FC01108203C064
S1130D602FEFFC012083CF910895CF93C62F61E02C
S1130D700E94CF05FC01C083CF91089562E00E94D8
S1130D80CF05FC0180810895CF93C62F60E00E94B7
S1130D90CF05FC01CC2319F0C13041F404C080819B
S1130DA08F70808303C08081806F8083CF9108958A
S1130DB0CF93C62F60E00E94CF05FC01CC2319F02D
S1130DC0C13041F404C08081807F808303C080816E
S1130DD08F608083CF910895CF93C62F61E00E94E6
S1130DE0CF05FC0180818F7080838081C07FC82BF8
S1130DF0C083CF910895CF93C62F61E00E94CF05A1
S1130E00FC018081807F80838081CF70C82BC08368
S1130E10CF91089562E00E94CF05FC018081829504
S1130E208F70089562E00E94CF05FC0180818F706D
S1130E300895CF92DF92EF92FF928130F1F18130E9
S1130E4038F0823009F485C0833009F001C1CDC087
S1130E50662321F0613009F0FBC012C0742F6627AD
S1130E60641B750B80E090E00E94D91020E030E014
S1130E7048EC52E40E9445100E94AD106CBFE8C0DB
S1130E80BA0180E090E00E94D9109B01AC0160E0BF
S1130E9070E088EC92E40E94E00F20E030E04FE73D
S1130EA053E40E94671120E030E048EC52E40E94D1
S1130EB045100E94AD106CBFCBC0662321F0613099
S1130EC009F0C6C01CC080911B0190911C01489F71
S1130ED0B001499F700D589F700D112480E090E07F
S1130EE00E94D91020E030E048EC52E40E94451002
S1130EF00E94AD10DC01CB019BBD8ABDA9C0BA0123
S1130F0080E090E00E94D9109B01AC0160E070E0A9
S1130F1088EC92E40E94E00F6B017C0160911B015C
S1130F2070911C0180E090E00E94D9109B01AC01FB
S1130F30C701B6010E94671120E030E048EC52E49A
S1130F400E9445100E94AD10DC01CB019BBD8ABDFF
S1130F507FC0662321F0613009F07AC01CC0809103
S1130F601B0190911C01489FB001499F700D589F2F
S1130F70700D112480E090E00E94D91020E030E050
S1130F8048EC52E40E9445100E94AD10DC01CB01F4
S1130F9099BD88BD5DC0BA0180E090E00E94D9107F
S1130FA09B01AC0160E070E088EC92E40E94E00FE9
S1130FB06B017C0160911B0170911C0180E090E049
S1130FC00E94D9109B01AC01C701B6010E946711B0
S1130FD020E030E048EC52E40E9445100E94AD103D
S1130FE0DC01CB0199BD88BD33C0662319F06130A3
S1130FF079F512C0742F6627641B750B80E090E0AE
S11310000E94D91020E030E048EC52E40E944510E0
S11310100E94AD1063BD1CC0BA0180E090E00E9444
S1131020D9109B01AC0160E070E088EC92E40E946E
S1131030E00F20E030E04FE753E40E94671120E026
S113104030E048EC52E40E9445100E94AD1063BDAC
S1131050FF90EF90DF90CF900895FC01BB9A13BEF0
S113106093B790648181880F880F880F892B83BF81
S113107093B7906283818295807F892B83BF82811D
S1131080843071F0853018F4833090F405C0982FC3
S11310909650943068F408C093B7892B83BF08C076
S11310A083B7836083BF04C093B78250892B83BF07
S11310B01CBE8381882319F0813091F514C080858A
S11310C090E0782F6627681B790B80E090E00E94FF
S11310D0D91020E030E048EC52E40E9445100E9410
S11310E0AD106CBF1DC0608570E080E090E00E9490
S11310F0DB109B01AC0160E070E088EC92E40E949C
S1131100E00F20E030E04FE753E40E94671120E055
S113111030E048EC52E40E9445100E94AD106CBFD0
S113112012BE0895CF92DF92EF92FF92CF93DF9396
S1131130EC018881813019F0823021F402C08D9A4B
S113114001C08C9A1FBC1EBC8FB582608FBD9EB53A
S113115090618981880F880F880F892B8EBD8881C3
S1131160813019F0823089F409C09FB590688B8171
S11311708295880F880F807C892B8FBD9FB59062E4
S11311808B818295807F892B8FBD8A81843071F019
S1131190853018F4833090F405C0982F965094301D
S11311A068F408C09EB5892B8EBD08C08EB58360D7
S11311B08EBD04C09EB58250892B8EBD6E817F8109
S11311C080E090E020E034E244EF50E00E94CA1155
S11311D00E94D9106B017C016C817D8180E090E0DC
S11311E00E94D91020E030E04AE754E40E946711DD
S11311F09B01AC01C701B6010E94451020E030E01C
S113120040E85FE30E94E00F0E94AD10DC01CB01D7
S113121090931C0180931B0197BD86BD888181300A
S113122021F0823009F0A0C050C08B81882321F0C6
S1131230813009F099C01EC0288530E080911B01DF
S113124090911C01289FB001299F700D389F700D4B
S1131250112480E090E00E94D91020E030E048ECB6
S113126052E40E9445100E94AD10DC01CB019BBDED
S11312708ABD7AC0688570E080E090E00E94DB104F
S11312809B01AC0160E070E088EC92E40E94E00F06
S11312906B017C0160911B0170911C0180E090E066
S11312A00E94D9109B01AC01C701B6010E946711CD
S11312B020E030E048EC52E40E9445100E94AD105A
S11312C0DC01CB019BBD8ABD4FC08B81882321F0FB
S11312D0813009F049C01EC0288530E080911B018F
S11312E090911C01289FB001299F700D389F700DAB
S11312F0112480E090E00E94D91020E030E048EC16
S113130052E40E9445100E94AD10DC01CB0199BD4E
S113131088BD2AC0688570E080E090E00E94DB1000
S11313209B01AC0160E070E088EC92E40E94E00F65
S11313306B017C0160911B0170911C0180E090E0C5
S11313400E94D9109B01AC01C701B6010E9467112C
S113135020E030E048EC52E40E9445100E94AD10B9
S1131360DC01CB0199BD88BD1DBC1CBCDF91CF91B4
S1131370FF90EF90DF90CF900895FC018F9A15BCF9
S113138095B590648181880F880F880F892B85BD5E
S113139093B7906283818295807F892B83BF8281FA
S11313A0982F9850923018F095B5892B85BD13BCB1
S11313B08381882319F0813091F514C0808590E0F1
S11313C0782F6627681B790B80E090E00E94D91083
S11313D020E030E048EC52E40E9445100E94AD1039
S11313E063BD1DC0608570E080E090E00E94DB106A
S11313F09B01AC0160E070E088EC92E40E94E00F95
S113140020E030E04FE753E40E94671120E030E031
S113141048EC52E40E9445100E94AD1063BD14BC18
S11314200895FC012081233018F4213038F403C0DE
S1131430233049F406C00E942D0808950E949208A2
S113144008950E94BD0908950E945F020E94AC05A0
S11314508AE091E00E94110A80E690E00E94EB008D
S113146008958F929F92AF92BF92CF92DF92EF92A4
S1131470FF920F931F93CF93DF93CDB7DEB72897D7
S11314800FB6F894DEBF0FBECDBF8C0180E090E0B4
S1131490DC0189839A83AB83BC838D839E83AF8372
S11314A0B88780E064E070E0AE014F5F5F4F0E9458
S11314B09A01CD80DE80EF80F884F801C186D2865F
S11314C0E386F48689809A80AB80BC808182928294
S11314D0A382B482C701B601A50194010E94E00F62
S11314E0DC01CB01F80185839683A783B08760E094
S11314F070E080E89FE3A70196010E944510DC019B
S1131500CB01F80185879687A787B08BC501B40105
S113151020E030E048EC52E40E946711A7019601F4
S11315200E9445100E94AD10F801608328960FB602
S1131530F894DEBF0FBECDBFDF91CF911F910F9105
S1131540FF90EF90DF90CF90BF90AF909F908F90DF
S11315500895AF92BF92CF92DF92EF92FF920F93D2
S11315601F93CF93DF93CDB7DEB7EC970FB6F89404
S1131570DEBF0FBECDBF5C016A017B010E94AC05DA
S113158080E00E949805FE013196A5E9B0E08CE068
S11315900D9001928150E1F7FE013D9683E0DF0159
S11315A01D928A95E9F7CE0101960E94BA04F501CD
S11315B065857685878590890E943505FE0170963C
S11315C0A4EAB0E085E00D9001928150E1F7CE01EC
S11315D040960E94BA0481E00E949805FE01759627
S11315E0AAEAB0E087E00D9001928150E1F7FE0194
S11315F07C9688E0DF011D928A95E9F7CE01459635
S11316000E94BA04F501608170E080E090E00E94DD
S1131610C9048091B9009091BA00A091BB00B09127
S1131620BC008CA39DA3AEA3BFA318A6CE01849631
S11316300E94BA0486E00E94980500E020E430E4A9
S11316404EE752E062E070E080E090E00E94D10258
S11316500B5FD50111966D917D918D919C9114979D
S1131660A70196010E9445100E94AD106623D1F097
S113167010E022E032E042E052E062E070E080E01C
S113168090E00E94D1020B5F1F5FF50161817281BE
S113169083819481A70196010E9445100E94AD1098
S11316A0161738F322E032E04EE750E460E470E0CD
S11316B080E090E00E94D1020B5FD50115966D91F8
S11316C07D918D919C911897A70196010E944510D8
S11316D00E94AD106623D1F010E020E430E440E431
S11316E050E460E470E080E090E00E94D1020B5F7F
S11316F01F5FF5016581768187819085A701960139
S11317000E9445100E94AD10161738F3083708F4EC
S113171095CF85E00E94980520E03EE348E05CE137
S11317206AE270E080E090E00E94D102D501119657
S11317306D917D918D919C911497A70196010E94C2
S113174045100E94AD106623C9F010E028E038E08F
S113175048E058E068E070E080E090E00E94D10248
S11317601F5FF5016181728183819481A7019601D4
S11317700E9445100E94AD10161740F328E038E08F
S113178048E058E068E070E080E090E00E94D10218
S1131790D50115966D917D918D919C911897A70116
S11317A096010E9445100E94AD106623C9F010E016
S11317B028E038E048E058E068E070E080E090E03D
S11317C00E94D1021F5FF501658176818781908532
S11317D0A70196010E9445100E94AD10161740F310
S11317E02AE23CE148E05EE360E070E080E090E003
S11317F00E94D10284E00E949805DE019996EEEBE6
S1131800F0E088E001900D928150E1F7FE01F1963D
S113181087E0DF011D928A95E9F7CE0189960E943F
S1131820BA04F50161857285838594850E94350526
S1131830DE01D896EDECF0E085E001900D92815048
S1131840E1F7CE01C8960E94BA04EC960FB6F8945C
S1131850DEBF0FBECDBFDF91CF911F910F91FF90DF
S1131860EF90DF90CF90BF90AF900895FC018081FE
S11318708130C1F1813020F0823009F08DC067C021
S113188013BE93B78181892B83BF8281843071F029
S1131890853018F4833090F405C0982F9650943016
S11318A068F408C093B7892B83BF08C083B78360EB
S11318B083BF04C093B78250892B83BF89B78C7FC1
S11318C089BF8181882321F0813009F065C004C07B
S11318D099B78381892B89BF99B78381880F892B15
S11318E089BF08951FBC1EBC9EB58181892B8EBD06
S11318F08281843071F0853018F4833090F405C00F
S1131900982F9650943068F408C09EB5892B8EBDEC
S113191008C08EB583608EBD04C09EB58250892BED
S11319208EBD89B7837E89BF8181882319F0813078
S113193099F506C099B78381880F880F892B89BFD1
S113194099B783818295807F892B89BF089515BCBF
S113195095B58181892B85BD8281982F98509230CD
S113196018F095B5892B85BD89B78F7389BF81819F
S1131970882319F0813081F408C099B78381829556
S1131980880F880F807C892B89BF99B783818795BD
S113199088278795892B89BF0895CF93DF93EC011E
S11319A08A81843009F44DC0853040F4823019F1C5
S11319B08330A0F5813009F090C00AC0863009F464
S11319C066C0863008F450C0873009F086C072C003
S11319D080E090E020E034E244EF50E00E94CA113D
S11319E00E94D91020E034E244E759E40E944510F3
S11319F00E94AD1074C080E090E020E034E244EF37
S1131A0050E00E94CA110E94D91020E034E244EF51
S1131A105AE40E9445100E94AD1061C080E090E03D
S1131A2020E034E244EF50E00E94CA110E94D91031
S1131A3020E034E244EF5BE40E9445100E94AD10C4
S1131A404EC080E090E020E034E244EF50E00E9499
S1131A50CA110E94D91020E034E244E75CE40E94F9
S1131A6045100E94AD103BC080E090E020E034E2DD
S1131A7044EF50E00E94CA110E94D91020E034E2E1
S1131A8044EF5CE40E9445100E94AD1028C080E041
S1131A9090E020E034E244EF50E00E94CA110E943A
S1131AA0D91020E034E244E75DE40E9445100E942E
S1131AB0AD1015C080E090E020E034E244EF50E047
S1131AC00E94CA110E94D91020E034E244E75EE487
S1131AD00E9445100E94AD1002C060E070E0888151
S1131AE0813051F1813020F0823009F089C060C02A
S1131AF089B78C7F89BF8981882389F0813009F077
S1131B007FC06CBF12BE88B781FFFDCF88B78260EB
S1131B1088BF99B78B81880F892B89BF71C0619564
S1131B2062BF08B600FEFDCF88B7816088BF99B751
S1131B308B81892B89BF64C089B7837C89BF8981E4
S1131B408823A1F0813009F05BC06ABD7BBD1CBC59
S1131B501DBC88B784FFFDCF88B7806188BF99B763
S1131B608B818295807F892B89BF4AC0862F80957F
S1131B708CBDAB0160E070E08FEF9FEFA0E0B0E0C0
S1131B80841B950BA60BB70B892F9A2FAB2FBB2762
S1131B90A7FDBA958DBD88B782FFFDCF88B7846055
S1131BA088BF99B78B81880F880F892B89BF28C07C
S1131BB089B78F7389BF8981882391F0813001F5BA
S1131BC063BD14BC08B607FEFDCF88B7806888BF24
S1131BD099B78B81879588278795892B89BF10C0F2
S1131BE0619564BD88B786FFFDCF88B7806488BFE0
S1131BF099B78B818295880F880F807C892B89BF48
S1131C00DF91CF910895CF93DF93EC018A818430E3
S1131C1009F44DC0853040F4823019F18330A0F5C9
S1131C20813009F090C00AC0863009F466C086305D
S1131C3008F450C0873009F086C072C080E090E09C
S1131C4020E034E244EF50E00E94CA110E94D9100F
S1131C5020E030E04AE754E40E9445100E94AD10B1
S1131C6074C080E090E020E034E244EF50E00E9451
S1131C70CA110E94D91020E030E04AEF55E40E94D6
S1131C8045100E94AD1061C080E090E020E034E295
S1131C9044EF50E00E94CA110E94D91020E030E0C5
S1131CA04AEF56E40E9445100E94AD104EC080E0F9
S1131CB090E020E034E244EF50E00E94CA110E9418
S1131CC0D91020E030E04AE757E40E9445100E9412
S1131CD0AD103BC080E090E020E034E244EF50E0FF
S1131CE00E94CA110E94D91020E030E04AEF57E464
S1131CF00E9445100E94AD1028C080E090E020E0D2
S1131D0034E244EF50E00E94CA110E94D91020E04E
S1131D1030E04AE758E40E9445100E94AD1015C017
S1131D2080E090E020E034E244EF50E00E94CA11E9
S1131D300E94D91020E030E04AE759E40E9445109F
S1131D400E94AD1002C060E070E08881813051F1E2
S1131D50813020F0823009F07AC051C089B78C7F7D
S1131D6089BF8981882389F0813009F070C06CBFF4
S1131D7012BE88B781FFFDCF88B7826088BF99B74C
S1131D808B81880F892B89BF62C0619562BF08B6B9
S1131D9000FEFDCF88B7816088BF99B78B81892BFE
S1131DA089BF55C089B7837C89BF89818823A1F005
S1131DB0813009F04CC07BBD6ABD1DBC1CBC88B71A
S1131DC084FFFDCF88B7806188BF99B78B818295E6
S1131DD0807F892B89BF3BC0862F80958CBD609501
S1131DE070957DBD88B782FFFDCF88B7846088BFBA
S1131DF099B78B81880F880F892B89BF28C089B731
S1131E008F7389BF8981882391F0813001F563BD87
S1131E1014BC08B607FEFDCF88B7806888BF99B7A1
S1131E208B81879588278795892B89BF10C06195F9
S1131E3064BD88B786FFFDCF88B7806488BF99B733
S1131E408B818295880F880F807C892B89BFDF91D5
S1131E50CF910895FC018081813091F0813018F098
S1131E60823081F51DC08181882319F0813041F4CD
S1131E7003C088B78170089588B7869581700895E6
S1131E808181882319F0813059F405C088B786957B
S1131E9086958170089588B782958F7081700895B2
S1131EA08181882319F0813079F407C088B782953D
S1131EB08695869583708170089588B7881F8827D2
S1131EC0881F089581E0089581E00895CF92DF92FC
S1131ED0EF92FF920F93CF93DF93CDB7DEB7609766
S1131EE00FB6F894DEBF0FBECDBF002309F45AC06D
S1131EF029873A874B875C876D877E878F87988B86
S1131F0080E2801B4D855E856F8578891816B4F054
S1131F101D821E821F821886992787FD90959095B1
S1131F2081959F4F04C076956795579547958A95F7
S1131F30D2F749835A836B837C832CC06A017B016B
S1131F40002E04C0F694E794D794C7940A94D2F769
S1131F50CD82DE82EF82F8866A017B0104C0CC0C5C
S1131F60DD1CEE1CFF1C8A95D2F7D701C6014985FA
S1131F705A856B857C8504C07695679557954795FA
S1131F800A95D2F7842B952BA62BB72B89839A839A
S1131F90AB83BC8329813A814B815C816D817E81D5
S1131FA08F81988560960FB6F894DEBF0FBECDBFC3
S1131FB0DF91CF910F91FF90EF90DF90CF90089534
S1131FC05058BB27AA270ED048C139D130F03ED192
S1131FD020F031F49F3F11F41EF42EC10EF4E0956D
S1131FE0E7FB24C1E92F4AD180F3BA1762077307CC
S1131FF08407950718F071F49EF562C10EF4E0951C
S11320000B2EBA2FA02D0B01B90190010C01CA01AE
S1132010A0011124FF27591B99F0593F50F4503E59
S113202068F11A16F040A22F232F342F4427585F4B
S1132030F3CF469537952795A795F0405395C9F763
S11320407EF41F16BA0B620B730B840BBAF091501B
S1132050A1F0FF0FBB1F661F771F881FC2F70EC0BA
S1132060BA0F621F731F841F48F48795779567958D
S1132070B795F7959E3F08F0B3CF9395880F08F076
S11320809927EE0F9795879508950CD0E6C0DED07A
S113209040F0D5D030F021F45F3F19F0C7C05111A2
S11320A010C1CAC0EBD098F39923C9F35523B1F3F7
S11320B0951B550BBB27AA2762177307840738F0B3
S11320C09F5F5F4F220F331F441FAA1FA9F333D012
S11320D00E2E3AF0E0E830D091505040E695001CC6
S11320E0CAF729D0FE2F27D0660F771F881FBB1F82
S11320F0261737074807AB07B0E809F0BB0B802D5C
S1132100BF01FF2793585F4F2AF09E3F510568F0A7
S11321108DC0D7C05F3FECF3983EDCF3869577958E
S11321206795B795F7959F5FC9F7880F911D9695A9
S1132130879597F90895E1E0660F771F881FBB1F05
S1132140621773078407BA0720F0621B730B840BB2
S1132150BA0BEE1F88F7E095089598D088F09F5742
S113216090F0B92F9927B751A0F0D1F0660F771FDF
S1132170881F991F1AF0BA95C9F712C0B13081F0BF
S11321809FD0B1E008959CC0672F782F8827B85F4F
S113219039F0B93FCCF3869577956795B395D9F720
S11321A03EF490958095709561957F4F8F4F9F4F2A
S11321B00895E89409C097FB3EF490958095709536
S11321C061957F4F8F4F9F4F9923A9F0F92F96E97F
S11321D0BB279395F695879577956795B795F111F4
S11321E0F8CFFAF4BB0F11F460FF1BC06F5F7F4F91
S11321F08F4F9F4F16C0882311F096E911C07723A3
S113220021F09EE8872F762F05C0662371F096E8AB
S1132210862F70E060E02AF09A95660F771F881F7A
S1132220DAF7880F9695879597F9089597F99F6738
S113223080E870E060E008959FEF80EC089500244A
S11322400A941616170618060906089500240A9417
S113225012161306140605060895092E0394000C9D
S113226011F4882352F0BB0F40F4BF2B11F460FF2C
S113227004C06F5F7F4F8F4F9F4F089557FD905855
S1132280440F551F59F05F3F71F04795880F97FB36
S1132290991F61F09F3F79F08795089512161306F0
S11322A01406551FF2CF4695F1DF08C0161617061F
S11322B01806991FF1CF8695710561050894089554
S11322C0E894BB2766277727CB0197F908950BD0AD
S11322D0C4CFB5DF28F0BADF18F0952309F0A6CFF4
S11322E0ABCF1124EECFCADFA0F3959FD1F3950FA6
S11322F050E0551F629FF001729FBB27F00DB11D86
S1132300639FAA27F00DB11DAA1F649F6627B00D15
S1132310A11D661F829F2227B00DA11D621F739FFE
S1132320B00DA11D621F839FA00D611D221F749F0C
S11323303327A00D611D231F849F600D211D822F53
S1132340762F6A2F11249F5750408AF0E1F088239A
S11323504AF0EE0FFF1FBB1F661F771F881F9150A7
S11323605040A9F79E3F510570F060CFAACF5F3F60
S1132370ECF3983EDCF3869577956795B795F795DA
S1132380E7959F5FC1F7FE2B880F911D9695879562
S113239097F90895629FD001739FF001829FE00D29
S11323A0F11D649FE00DF11D929FF00D839FF00DD0
S11323B0749FF00D659FF00D9927729FB00DE11D7C
S11323C0F91F639FB00DE11DF91FBD01CF01112459
S11323D0089597FB092E05260ED057FD04D014D07E
S11323E00AD0001C38F450954095309521953F4F04
S11323F04F4F5F4F0895F6F79095809570956195CE
S11324007F4F8F4F9F4F0895A1E21A2EAA1BBB1B2B
S1132410FD010DC0AA1FBB1FEE1FFF1FA217B307AC
S1132420E407F50720F0A21BB30BE40BF50B661FC2
S1132430771F881F991F1A9469F760957095809586
S113244090959B01AC01BD01CF0108950F931F939B
S1132450CF93DF938C01E0911F01F09120018381E0
S113246081FF1AC0C0E0D0E005C00995009711F0C3
S1132470CFEFDFEFF80181918F0160911F0170911F
S11324802001DB011896ED91FC911997882369F7D7
S11324908AE00995009711F0CFEFDFEFCE01DF91CD
S10F24A0CF911F910F910895F894FFCF85
S11324AC000300004368616E67696E672050574DE6
S11324BC206672657175656E63792E2E2E005057E9
S11324CC4D206672657175656E6379206368616E03
S11324DC6765642E004672657175656E63793D009F
S11324EC00000000206B487A0000447574793D00AC
S11324FC0000000000000000002025000000205413
S113250C696D653D000000000000000000206D7343
S113251C00000000000000001F001F00000000006D
S113252C00000704040404041C001C040404040434
S113253C07000111091D09110000101112171211C5
S113254C00000000001F0000000000010400040053
S10B255C000004020104000068
S9030000FC
